:020000021000EC
:10FC000001C0BCC011248FEF90E19EBF8DBF84B7AF
:10FC1000882369F0982F9A70923049F081FF02C0D2
:10FC200097EF94BF282E80E0C7D00C94000082E0AC
:10FC30008BB988E18AB980E189B986E08093950023
:10FC40008EE0BAD0B2D0813479F4AFD0C82FB8D01A
:10FC5000C23811F480E004C088E0C13809F083E0C4
:10FC6000A0D080E19ED0EECF823419F484E1B0D0F0
:10FC7000F8CF853411F485E0FACF853581F495D03D
:10FC8000082F93D0182F87FF07C08BB781608BBFD9
:10FC9000000F111F95D0E5CF8BB78E7FF8CF86353B
:10FCA00079F483D08D3451F480D0CBB77ED0C1703D
:10FCB000880F8C2B8BBF81E08BD0CCCF83E0FCCF27
:10FCC000843609F039C071D0C82FD0E0DC2FCC27A2
:10FCD0006CD0C82B6AD0D82E5E01B394E12CFF24DF
:10FCE000F3944701EFEF8E1A9E0A5FD0F7018083ED
:10FCF00074018A149B04A9F763D0F5E4DF1201C0F4
:10FD0000FFCF50E040E063E0C80138D07801C12C5B
:10FD1000DD24D394F601419151916F0161E0C70157
:10FD20002DD0F2E0EF0EF11C2297A1F750E040E059
:10FD300065E0C80123D095CF843789F436D0C82F29
:10FD4000D0E0DC2FCC2731D0C82B2FD039D0780190
:10FD5000F70187917F0125D02197D1F782CF853791
:10FD600039F42ED08EE11DD087E91BD082E078CF08
:10FD7000813509F08FCF88E01FD08CCFFC010A01BC
:10FD800060936800E89511248091680080FDFCCFA5
:10FD9000667031F0452B21F481E180936800E8958D
:10FDA00008955D9BFECF8CB908955F9BFECF5C9953
:10FDB00001C0A8958CB1089598E191BD81BD0895C9
:10FDC000F4DF803219F088E0F7DFFFCF84E1E9CF7C
:0EFDD000CF93C82FEADFC150E9F7CF91F1CFF2
:02FFFE000008F9
:040000031000FC00ED
:00000001FF
